{
    "_format": "hh-sol-artifact-1",
    "contractName": "Bank",
    "sourceName": "contracts/Bank.sol",
    "abi": [
        {
            "inputs": [],
            "stateMutability": "nonpayable",
            "type": "constructor"
        },
        {
            "inputs": [],
            "name": "bankName",
            "outputs": [
                {
                    "internalType": "string",
                    "name": "",
                    "type": "string"
                }
            ],
            "stateMutability": "view",
            "type": "function"
        },
        {
            "inputs": [],
            "name": "bankOwner",
            "outputs": [
                {
                    "internalType": "address",
                    "name": "",
                    "type": "address"
                }
            ],
            "stateMutability": "view",
            "type": "function"
        },
        {
            "inputs": [
                {
                    "internalType": "address",
                    "name": "",
                    "type": "address"
                }
            ],
            "name": "customerBalance",
            "outputs": [
                {
                    "internalType": "uint256",
                    "name": "",
                    "type": "uint256"
                }
            ],
            "stateMutability": "view",
            "type": "function"
        },
        {
            "inputs": [],
            "name": "depositMoney",
            "outputs": [],
            "stateMutability": "payable",
            "type": "function"
        },
        {
            "inputs": [],
            "name": "getBankBalance",
            "outputs": [
                {
                    "internalType": "uint256",
                    "name": "",
                    "type": "uint256"
                }
            ],
            "stateMutability": "view",
            "type": "function"
        },
        {
            "inputs": [],
            "name": "getCustomerBalance",
            "outputs": [
                {
                    "internalType": "uint256",
                    "name": "",
                    "type": "uint256"
                }
            ],
            "stateMutability": "view",
            "type": "function"
        },
        {
            "inputs": [
                {
                    "internalType": "string",
                    "name": "_name",
                    "type": "string"
                }
            ],
            "name": "setBankName",
            "outputs": [],
            "stateMutability": "nonpayable",
            "type": "function"
        },
        {
            "inputs": [
                {
                    "internalType": "address payable",
                    "name": "_to",
                    "type": "address"
                },
                {
                    "internalType": "uint256",
                    "name": "_total",
                    "type": "uint256"
                }
            ],
            "name": "withdrawMoney",
            "outputs": [],
            "stateMutability": "nonpayable",
            "type": "function"
        }
    ],
    "bytecode": "0x608060405234801561001057600080fd5b50336000806101000a81548173ffffffffffffffffffffffffffffffffffffffff021916908373ffffffffffffffffffffffffffffffffffffffff160217905550610def806100606000396000f3fe60806040526004361061007b5760003560e01c80637b83b50b1161004e5780637b83b50b1461011b578063a853409a14610146578063e147aaa714610171578063f274c8971461019c5761007b565b806316c05aa21461008057806327d358011461008a57806337ebe47b146100b557806370142690146100f2575b600080fd5b6100886101c5565b005b34801561009657600080fd5b5061009f610261565b6040516100ac9190610710565b60405180910390f35b3480156100c157600080fd5b506100dc60048036038101906100d791906107a4565b6102ef565b6040516100e991906107ea565b60405180910390f35b3480156100fe57600080fd5b506101196004803603810190610114919061093a565b610307565b005b34801561012757600080fd5b506101306103af565b60405161013d91906107ea565b60405180910390f35b34801561015257600080fd5b5061015b610446565b60405161016891906107ea565b60405180910390f35b34801561017d57600080fd5b5061018661048d565b6040516101939190610992565b60405180910390f35b3480156101a857600080fd5b506101c360048036038101906101be9190610a17565b6104b1565b005b6000341415610209576040517f08c379a000000000000000000000000000000000000000000000000000000000815260040161020090610ac9565b60405180910390fd5b34600260003373ffffffffffffffffffffffffffffffffffffffff1673ffffffffffffffffffffffffffffffffffffffff16815260200190815260200160002060008282546102589190610b18565b92505081905550565b6001805461026e90610b9d565b80601f016020809104026020016040519081016040528092919081815260200182805461029a90610b9d565b80156102e75780601f106102bc576101008083540402835291602001916102e7565b820191906000526020600020905b8154815290600101906020018083116102ca57829003601f168201915b505050505081565b60026020528060005260406000206000915090505481565b60008054906101000a900473ffffffffffffffffffffffffffffffffffffffff1673ffffffffffffffffffffffffffffffffffffffff163373ffffffffffffffffffffffffffffffffffffffff1614610395576040517f08c379a000000000000000000000000000000000000000000000000000000000815260040161038c90610c41565b60405180910390fd5b80600190805190602001906103ab9291906105d4565b5050565b60008060009054906101000a900473ffffffffffffffffffffffffffffffffffffffff1673ffffffffffffffffffffffffffffffffffffffff163373ffffffffffffffffffffffffffffffffffffffff1614610440576040517f08c379a000000000000000000000000000000000000000000000000000000000815260040161043790610cd3565b60405180910390fd5b47905090565b6000600260003373ffffffffffffffffffffffffffffffffffffffff1673ffffffffffffffffffffffffffffffffffffffff16815260200190815260200160002054905090565b60008054906101000a900473ffffffffffffffffffffffffffffffffffffffff1681565b600260003373ffffffffffffffffffffffffffffffffffffffff1673ffffffffffffffffffffffffffffffffffffffff16815260200190815260200160002054811115610533576040517f08c379a000000000000000000000000000000000000000000000000000000000815260040161052a90610d65565b60405180910390fd5b80600260003373ffffffffffffffffffffffffffffffffffffffff1673ffffffffffffffffffffffffffffffffffffffff16815260200190815260200160002060008282546105829190610d85565b925050819055508173ffffffffffffffffffffffffffffffffffffffff166108fc829081150290604051600060405180830381858888f193505050501580156105cf573d6000803e3d6000fd5b505050565b8280546105e090610b9d565b90600052602060002090601f0160209004810192826106025760008555610649565b82601f1061061b57805160ff1916838001178555610649565b82800160010185558215610649579182015b8281111561064857825182559160200191906001019061062d565b5b509050610656919061065a565b5090565b5b8082111561067357600081600090555060010161065b565b5090565b600081519050919050565b600082825260208201905092915050565b60005b838110156106b1578082015181840152602081019050610696565b838111156106c0576000848401525b50505050565b6000601f19601f8301169050919050565b60006106e282610677565b6106ec8185610682565b93506106fc818560208601610693565b610705816106c6565b840191505092915050565b6000602082019050818103600083015261072a81846106d7565b905092915050565b6000604051905090565b600080fd5b600080fd5b600073ffffffffffffffffffffffffffffffffffffffff82169050919050565b600061077182610746565b9050919050565b61078181610766565b811461078c57600080fd5b50565b60008135905061079e81610778565b92915050565b6000602082840312156107ba576107b961073c565b5b60006107c88482850161078f565b91505092915050565b6000819050919050565b6107e4816107d1565b82525050565b60006020820190506107ff60008301846107db565b92915050565b600080fd5b600080fd5b7f4e487b7100000000000000000000000000000000000000000000000000000000600052604160045260246000fd5b610847826106c6565b810181811067ffffffffffffffff821117156108665761086561080f565b5b80604052505050565b6000610879610732565b9050610885828261083e565b919050565b600067ffffffffffffffff8211156108a5576108a461080f565b5b6108ae826106c6565b9050602081019050919050565b82818337600083830152505050565b60006108dd6108d88461088a565b61086f565b9050828152602081018484840111156108f9576108f861080a565b5b6109048482856108bb565b509392505050565b600082601f83011261092157610920610805565b5b81356109318482602086016108ca565b91505092915050565b6000602082840312156109505761094f61073c565b5b600082013567ffffffffffffffff81111561096e5761096d610741565b5b61097a8482850161090c565b91505092915050565b61098c81610766565b82525050565b60006020820190506109a76000830184610983565b92915050565b60006109b882610746565b9050919050565b6109c8816109ad565b81146109d357600080fd5b50565b6000813590506109e5816109bf565b92915050565b6109f4816107d1565b81146109ff57600080fd5b50565b600081359050610a11816109eb565b92915050565b60008060408385031215610a2e57610a2d61073c565b5b6000610a3c858286016109d6565b9250506020610a4d85828601610a02565b9150509250929050565b7f596f75206e65656420746f206465706f73697420736f6d6520616d6f756e742060008201527f6f66206d6f6e6579210000000000000000000000000000000000000000000000602082015250565b6000610ab3602983610682565b9150610abe82610a57565b604082019050919050565b60006020820190508181036000830152610ae281610aa6565b9050919050565b7f4e487b7100000000000000000000000000000000000000000000000000000000600052601160045260246000fd5b6000610b23826107d1565b9150610b2e836107d1565b9250827fffffffffffffffffffffffffffffffffffffffffffffffffffffffffffffffff03821115610b6357610b62610ae9565b5b828201905092915050565b7f4e487b7100000000000000000000000000000000000000000000000000000000600052602260045260246000fd5b60006002820490506001821680610bb557607f821691505b60208210811415610bc957610bc8610b6e565b5b50919050565b7f596f75206d75737420626520746865206f776e657220746f207365742074686560008201527f206e616d65206f66207468652062616e6b000000000000000000000000000000602082015250565b6000610c2b603183610682565b9150610c3682610bcf565b604082019050919050565b60006020820190508181036000830152610c5a81610c1e565b9050919050565b7f596f75206d75737420626520746865206f776e6572206f66207468652062616e60008201527f6b20746f2073656520616c6c2062616c616e6365732e00000000000000000000602082015250565b6000610cbd603683610682565b9150610cc882610c61565b604082019050919050565b60006020820190508181036000830152610cec81610cb0565b9050919050565b7f596f75206861766520696e7375666669656e742066756e647320746f2077697460008201527f6864726177000000000000000000000000000000000000000000000000000000602082015250565b6000610d4f602583610682565b9150610d5a82610cf3565b604082019050919050565b60006020820190508181036000830152610d7e81610d42565b9050919050565b6000610d90826107d1565b9150610d9b836107d1565b925082821015610dae57610dad610ae9565b5b82820390509291505056fea2646970667358221220ef282e4d197453571bc8afdffc769d72d0ff5d13a4d74c1e4fe0ae185560212e64736f6c63430008090033",
    "linkReferences": {},
    "deployedLinkReferences": {}
}