{
  "_format": "hh-sol-artifact-1",
  "contractName": "MyEpicNFT",
  "sourceName": "contracts/MyEpicNFT.sol",
  "abi": [
    {
      "inputs": [],
      "stateMutability": "nonpayable",
      "type": "constructor"
    },
    {
      "anonymous": false,
      "inputs": [
        {
          "indexed": true,
          "internalType": "address",
          "name": "owner",
          "type": "address"
        },
        {
          "indexed": true,
          "internalType": "address",
          "name": "approved",
          "type": "address"
        },
        {
          "indexed": true,
          "internalType": "uint256",
          "name": "tokenId",
          "type": "uint256"
        }
      ],
      "name": "Approval",
      "type": "event"
    },
    {
      "anonymous": false,
      "inputs": [
        {
          "indexed": true,
          "internalType": "address",
          "name": "owner",
          "type": "address"
        },
        {
          "indexed": true,
          "internalType": "address",
          "name": "operator",
          "type": "address"
        },
        {
          "indexed": false,
          "internalType": "bool",
          "name": "approved",
          "type": "bool"
        }
      ],
      "name": "ApprovalForAll",
      "type": "event"
    },
    {
      "anonymous": false,
      "inputs": [
        {
          "indexed": true,
          "internalType": "address",
          "name": "from",
          "type": "address"
        },
        {
          "indexed": true,
          "internalType": "address",
          "name": "to",
          "type": "address"
        },
        {
          "indexed": true,
          "internalType": "uint256",
          "name": "tokenId",
          "type": "uint256"
        }
      ],
      "name": "Transfer",
      "type": "event"
    },
    {
      "inputs": [
        {
          "internalType": "address",
          "name": "to",
          "type": "address"
        },
        {
          "internalType": "uint256",
          "name": "tokenId",
          "type": "uint256"
        }
      ],
      "name": "approve",
      "outputs": [],
      "stateMutability": "nonpayable",
      "type": "function"
    },
    {
      "inputs": [
        {
          "internalType": "address",
          "name": "owner",
          "type": "address"
        }
      ],
      "name": "balanceOf",
      "outputs": [
        {
          "internalType": "uint256",
          "name": "",
          "type": "uint256"
        }
      ],
      "stateMutability": "view",
      "type": "function"
    },
    {
      "inputs": [
        {
          "internalType": "uint256",
          "name": "tokenId",
          "type": "uint256"
        }
      ],
      "name": "getApproved",
      "outputs": [
        {
          "internalType": "address",
          "name": "",
          "type": "address"
        }
      ],
      "stateMutability": "view",
      "type": "function"
    },
    {
      "inputs": [
        {
          "internalType": "address",
          "name": "owner",
          "type": "address"
        },
        {
          "internalType": "address",
          "name": "operator",
          "type": "address"
        }
      ],
      "name": "isApprovedForAll",
      "outputs": [
        {
          "internalType": "bool",
          "name": "",
          "type": "bool"
        }
      ],
      "stateMutability": "view",
      "type": "function"
    },
    {
      "inputs": [],
      "name": "makeAnEpicNFT",
      "outputs": [],
      "stateMutability": "nonpayable",
      "type": "function"
    },
    {
      "inputs": [],
      "name": "name",
      "outputs": [
        {
          "internalType": "string",
          "name": "",
          "type": "string"
        }
      ],
      "stateMutability": "view",
      "type": "function"
    },
    {
      "inputs": [
        {
          "internalType": "uint256",
          "name": "tokenId",
          "type": "uint256"
        }
      ],
      "name": "ownerOf",
      "outputs": [
        {
          "internalType": "address",
          "name": "",
          "type": "address"
        }
      ],
      "stateMutability": "view",
      "type": "function"
    },
    {
      "inputs": [
        {
          "internalType": "address",
          "name": "from",
          "type": "address"
        },
        {
          "internalType": "address",
          "name": "to",
          "type": "address"
        },
        {
          "internalType": "uint256",
          "name": "tokenId",
          "type": "uint256"
        }
      ],
      "name": "safeTransferFrom",
      "outputs": [],
      "stateMutability": "nonpayable",
      "type": "function"
    },
    {
      "inputs": [
        {
          "internalType": "address",
          "name": "from",
          "type": "address"
        },
        {
          "internalType": "address",
          "name": "to",
          "type": "address"
        },
        {
          "internalType": "uint256",
          "name": "tokenId",
          "type": "uint256"
        },
        {
          "internalType": "bytes",
          "name": "data",
          "type": "bytes"
        }
      ],
      "name": "safeTransferFrom",
      "outputs": [],
      "stateMutability": "nonpayable",
      "type": "function"
    },
    {
      "inputs": [
        {
          "internalType": "address",
          "name": "operator",
          "type": "address"
        },
        {
          "internalType": "bool",
          "name": "approved",
          "type": "bool"
        }
      ],
      "name": "setApprovalForAll",
      "outputs": [],
      "stateMutability": "nonpayable",
      "type": "function"
    },
    {
      "inputs": [
        {
          "internalType": "bytes4",
          "name": "interfaceId",
          "type": "bytes4"
        }
      ],
      "name": "supportsInterface",
      "outputs": [
        {
          "internalType": "bool",
          "name": "",
          "type": "bool"
        }
      ],
      "stateMutability": "view",
      "type": "function"
    },
    {
      "inputs": [],
      "name": "symbol",
      "outputs": [
        {
          "internalType": "string",
          "name": "",
          "type": "string"
        }
      ],
      "stateMutability": "view",
      "type": "function"
    },
    {
      "inputs": [
        {
          "internalType": "uint256",
          "name": "tokenId",
          "type": "uint256"
        }
      ],
      "name": "tokenURI",
      "outputs": [
        {
          "internalType": "string",
          "name": "",
          "type": "string"
        }
      ],
      "stateMutability": "view",
      "type": "function"
    },
    {
      "inputs": [
        {
          "internalType": "address",
          "name": "from",
          "type": "address"
        },
        {
          "internalType": "address",
          "name": "to",
          "type": "address"
        },
        {
          "internalType": "uint256",
          "name": "tokenId",
          "type": "uint256"
        }
      ],
      "name": "transferFrom",
      "outputs": [],
      "stateMutability": "nonpayable",
      "type": "function"
    }
  ],
  "bytecode": "0x60806040523480156200001157600080fd5b506040518060400160405280600981526020017f5371756172654e465400000000000000000000000000000000000000000000008152506040518060400160405280600681526020017f5351554152450000000000000000000000000000000000000000000000000000815250816000908051906020019062000096929190620001cf565b508060019080519060200190620000af929190620001cf565b505050620000fd6040518060400160405280601e81526020017f54686973206973206d79204e465420636f6e74726163742e20576f61682100008152506200010360201b62000ad51760201c565b620003ac565b620001a3816040516024016200011a9190620002c0565b6040516020818303038152906040527f41304fac000000000000000000000000000000000000000000000000000000007bffffffffffffffffffffffffffffffffffffffffffffffffffffffff19166020820180517bffffffffffffffffffffffffffffffffffffffffffffffffffffffff8381831617835250505050620001a660201b60201c565b50565b60008151905060006a636f6e736f6c652e6c6f679050602083016000808483855afa5050505050565b828054620001dd9062000336565b90600052602060002090601f0160209004810192826200020157600085556200024d565b82601f106200021c57805160ff19168380011785556200024d565b828001600101855582156200024d579182015b828111156200024c5782518255916020019190600101906200022f565b5b5090506200025c919062000260565b5090565b5b808211156200027b57600081600090555060010162000261565b5090565b60006200028c82620002e4565b620002988185620002ef565b9350620002aa81856020860162000300565b620002b5816200039b565b840191505092915050565b60006020820190508181036000830152620002dc81846200027f565b905092915050565b600081519050919050565b600082825260208201905092915050565b60005b838110156200032057808201518184015260208101905062000303565b8381111562000330576000848401525b50505050565b600060028204905060018216806200034f57607f821691505b602082108114156200036657620003656200036c565b5b50919050565b7f4e487b7100000000000000000000000000000000000000000000000000000000600052602260045260246000fd5b6000601f19601f8301169050919050565b6129ea80620003bc6000396000f3fe608060405234801561001057600080fd5b50600436106100ea5760003560e01c806370a082311161008c578063b88d4fde11610066578063b88d4fde1461025b578063c87b56dd14610277578063de9d132f146102a7578063e985e9c5146102b1576100ea565b806370a08231146101f157806395d89b4114610221578063a22cb4651461023f576100ea565b8063095ea7b3116100c8578063095ea7b31461016d57806323b872dd1461018957806342842e0e146101a55780636352211e146101c1576100ea565b806301ffc9a7146100ef57806306fdde031461011f578063081812fc1461013d575b600080fd5b61010960048036038101906101049190611cd3565b6102e1565b604051610116919061204d565b60405180910390f35b6101276103c3565b6040516101349190612068565b60405180910390f35b61015760048036038101906101529190611d25565b610455565b6040516101649190611fe6565b60405180910390f35b61018760048036038101906101829190611c97565b61049b565b005b6101a3600480360381019061019e9190611b91565b6105b3565b005b6101bf60048036038101906101ba9190611b91565b610613565b005b6101db60048036038101906101d69190611d25565b610633565b6040516101e89190611fe6565b60405180910390f35b61020b60048036038101906102069190611b2c565b6106e5565b6040516102189190612248565b60405180910390f35b61022961079d565b6040516102369190612068565b60405180910390f35b61025960048036038101906102549190611c5b565b61082f565b005b61027560048036038101906102709190611be0565b610845565b005b610291600480360381019061028c9190611d25565b6108a7565b60405161029e9190612068565b60405180910390f35b6102af6109ba565b005b6102cb60048036038101906102c69190611b55565b610a41565b6040516102d8919061204d565b60405180910390f35b60007f80ac58cd000000000000000000000000000000000000000000000000000000007bffffffffffffffffffffffffffffffffffffffffffffffffffffffff1916827bffffffffffffffffffffffffffffffffffffffffffffffffffffffff191614806103ac57507f5b5e139f000000000000000000000000000000000000000000000000000000007bffffffffffffffffffffffffffffffffffffffffffffffffffffffff1916827bffffffffffffffffffffffffffffffffffffffffffffffffffffffff1916145b806103bc57506103bb82610b6e565b5b9050919050565b6060600080546103d29061246d565b80601f01602080910402602001604051908101604052809291908181526020018280546103fe9061246d565b801561044b5780601f106104205761010080835404028352916020019161044b565b820191906000526020600020905b81548152906001019060200180831161042e57829003601f168201915b5050505050905090565b600061046082610bd8565b6004600083815260200190815260200160002060009054906101000a900473ffffffffffffffffffffffffffffffffffffffff169050919050565b60006104a682610633565b90508073ffffffffffffffffffffffffffffffffffffffff168373ffffffffffffffffffffffffffffffffffffffff161415610517576040517f08c379a000000000000000000000000000000000000000000000000000000000815260040161050e90612208565b60405180910390fd5b8073ffffffffffffffffffffffffffffffffffffffff16610536610c23565b73ffffffffffffffffffffffffffffffffffffffff16148061056557506105648161055f610c23565b610a41565b5b6105a4576040517f08c379a000000000000000000000000000000000000000000000000000000000815260040161059b906121a8565b60405180910390fd5b6105ae8383610c2b565b505050565b6105c46105be610c23565b82610ce4565b610603576040517f08c379a00000000000000000000000000000000000000000000000000000000081526004016105fa90612228565b60405180910390fd5b61060e838383610d79565b505050565b61062e83838360405180602001604052806000815250610845565b505050565b6000806002600084815260200190815260200160002060009054906101000a900473ffffffffffffffffffffffffffffffffffffffff169050600073ffffffffffffffffffffffffffffffffffffffff168173ffffffffffffffffffffffffffffffffffffffff1614156106dc576040517f08c379a00000000000000000000000000000000000000000000000000000000081526004016106d3906121e8565b60405180910390fd5b80915050919050565b60008073ffffffffffffffffffffffffffffffffffffffff168273ffffffffffffffffffffffffffffffffffffffff161415610756576040517f08c379a000000000000000000000000000000000000000000000000000000000815260040161074d90612168565b60405180910390fd5b600360008373ffffffffffffffffffffffffffffffffffffffff1673ffffffffffffffffffffffffffffffffffffffff168152602001908152602001600020549050919050565b6060600180546107ac9061246d565b80601f01602080910402602001604051908101604052809291908181526020018280546107d89061246d565b80156108255780601f106107fa57610100808354040283529160200191610825565b820191906000526020600020905b81548152906001019060200180831161080857829003601f168201915b5050505050905090565b61084161083a610c23565b8383610fe0565b5050565b610856610850610c23565b83610ce4565b610895576040517f08c379a000000000000000000000000000000000000000000000000000000000815260040161088c90612228565b60405180910390fd5b6108a18484848461114d565b50505050565b60606108b282610bd8565b60006006600084815260200190815260200160002080546108d29061246d565b80601f01602080910402602001604051908101604052809291908181526020018280546108fe9061246d565b801561094b5780601f106109205761010080835404028352916020019161094b565b820191906000526020600020905b81548152906001019060200180831161092e57829003601f168201915b50505050509050600061095c6111a9565b90506000815114156109725781925050506109b5565b6000825111156109a757808260405160200161098f929190611fc2565b604051602081830303815290604052925050506109b5565b6109b0846111c0565b925050505b919050565b60006109c66007611228565b90506109d23382611236565b610a11816040518060400160405280601d81526020017f68747470733a2f2f6a736f6e6b65657065722e636f6d2f622f39554c32000000815250611254565b610a346040518060600160405280602581526020016129906025913982336112c8565b610a3e6007611367565b50565b6000600560008473ffffffffffffffffffffffffffffffffffffffff1673ffffffffffffffffffffffffffffffffffffffff16815260200190815260200160002060008373ffffffffffffffffffffffffffffffffffffffff1673ffffffffffffffffffffffffffffffffffffffff16815260200190815260200160002060009054906101000a900460ff16905092915050565b610b6b81604051602401610ae99190612068565b6040516020818303038152906040527f41304fac000000000000000000000000000000000000000000000000000000007bffffffffffffffffffffffffffffffffffffffffffffffffffffffff19166020820180517bffffffffffffffffffffffffffffffffffffffffffffffffffffffff838183161783525050505061137d565b50565b60007f01ffc9a7000000000000000000000000000000000000000000000000000000007bffffffffffffffffffffffffffffffffffffffffffffffffffffffff1916827bffffffffffffffffffffffffffffffffffffffffffffffffffffffff1916149050919050565b610be1816113a6565b610c20576040517f08c379a0000000000000000000000000000000000000000000000000000000008152600401610c17906121e8565b60405180910390fd5b50565b600033905090565b816004600083815260200190815260200160002060006101000a81548173ffffffffffffffffffffffffffffffffffffffff021916908373ffffffffffffffffffffffffffffffffffffffff160217905550808273ffffffffffffffffffffffffffffffffffffffff16610c9e83610633565b73ffffffffffffffffffffffffffffffffffffffff167f8c5be1e5ebec7d5bd14f71427d1e84f3dd0314c0f7b2291e5b200ac8c7c3b92560405160405180910390a45050565b600080610cf083610633565b90508073ffffffffffffffffffffffffffffffffffffffff168473ffffffffffffffffffffffffffffffffffffffff161480610d325750610d318185610a41565b5b80610d7057508373ffffffffffffffffffffffffffffffffffffffff16610d5884610455565b73ffffffffffffffffffffffffffffffffffffffff16145b91505092915050565b8273ffffffffffffffffffffffffffffffffffffffff16610d9982610633565b73ffffffffffffffffffffffffffffffffffffffff1614610def576040517f08c379a0000000000000000000000000000000000000000000000000000000008152600401610de6906120e8565b60405180910390fd5b600073ffffffffffffffffffffffffffffffffffffffff168273ffffffffffffffffffffffffffffffffffffffff161415610e5f576040517f08c379a0000000000000000000000000000000000000000000000000000000008152600401610e5690612128565b60405180910390fd5b610e6a838383611412565b610e75600082610c2b565b6001600360008573ffffffffffffffffffffffffffffffffffffffff1673ffffffffffffffffffffffffffffffffffffffff1681526020019081526020016000206000828254610ec59190612383565b925050819055506001600360008473ffffffffffffffffffffffffffffffffffffffff1673ffffffffffffffffffffffffffffffffffffffff1681526020019081526020016000206000828254610f1c91906122fc565b92505081905550816002600083815260200190815260200160002060006101000a81548173ffffffffffffffffffffffffffffffffffffffff021916908373ffffffffffffffffffffffffffffffffffffffff160217905550808273ffffffffffffffffffffffffffffffffffffffff168473ffffffffffffffffffffffffffffffffffffffff167fddf252ad1be2c89b69c2b068fc378daa952ba7f163c4a11628f55a4df523b3ef60405160405180910390a4610fdb838383611417565b505050565b8173ffffffffffffffffffffffffffffffffffffffff168373ffffffffffffffffffffffffffffffffffffffff16141561104f576040517f08c379a000000000000000000000000000000000000000000000000000000000815260040161104690612148565b60405180910390fd5b80600560008573ffffffffffffffffffffffffffffffffffffffff1673ffffffffffffffffffffffffffffffffffffffff16815260200190815260200160002060008473ffffffffffffffffffffffffffffffffffffffff1673ffffffffffffffffffffffffffffffffffffffff16815260200190815260200160002060006101000a81548160ff0219169083151502179055508173ffffffffffffffffffffffffffffffffffffffff168373ffffffffffffffffffffffffffffffffffffffff167f17307eab39ab6107e8899845ad3d59bd9653f200f220920489ca2b5937696c3183604051611140919061204d565b60405180910390a3505050565b611158848484610d79565b6111648484848461141c565b6111a3576040517f08c379a000000000000000000000000000000000000000000000000000000000815260040161119a906120c8565b60405180910390fd5b50505050565b606060405180602001604052806000815250905090565b60606111cb82610bd8565b60006111d56111a9565b905060008151116111f55760405180602001604052806000815250611220565b806111ff846115b3565b604051602001611210929190611fc2565b6040516020818303038152906040525b915050919050565b600081600001549050919050565b611250828260405180602001604052806000815250611760565b5050565b61125d826113a6565b61129c576040517f08c379a000000000000000000000000000000000000000000000000000000000815260040161129390612188565b60405180910390fd5b806006600084815260200190815260200160002090805190602001906112c39291906119b8565b505050565b6113628383836040516024016112e09392919061208a565b6040516020818303038152906040527f1c7ec448000000000000000000000000000000000000000000000000000000007bffffffffffffffffffffffffffffffffffffffffffffffffffffffff19166020820180517bffffffffffffffffffffffffffffffffffffffffffffffffffffffff838183161783525050505061137d565b505050565b6001816000016000828254019250508190555050565b60008151905060006a636f6e736f6c652e6c6f679050602083016000808483855afa5050505050565b60008073ffffffffffffffffffffffffffffffffffffffff166002600084815260200190815260200160002060009054906101000a900473ffffffffffffffffffffffffffffffffffffffff1673ffffffffffffffffffffffffffffffffffffffff1614159050919050565b505050565b505050565b600061143d8473ffffffffffffffffffffffffffffffffffffffff166117bb565b156115a6578373ffffffffffffffffffffffffffffffffffffffff1663150b7a02611466610c23565b8786866040518563ffffffff1660e01b81526004016114889493929190612001565b602060405180830381600087803b1580156114a257600080fd5b505af19250505080156114d357506040513d601f19601f820116820180604052508101906114d09190611cfc565b60015b611556573d8060008114611503576040519150601f19603f3d011682016040523d82523d6000602084013e611508565b606091505b5060008151141561154e576040517f08c379a0000000000000000000000000000000000000000000000000000000008152600401611545906120c8565b60405180910390fd5b805181602001fd5b63150b7a0260e01b7bffffffffffffffffffffffffffffffffffffffffffffffffffffffff1916817bffffffffffffffffffffffffffffffffffffffffffffffffffffffff1916149150506115ab565b600190505b949350505050565b606060008214156115fb576040518060400160405280600181526020017f3000000000000000000000000000000000000000000000000000000000000000815250905061175b565b600082905060005b6000821461162d578080611616906124d0565b915050600a826116269190612352565b9150611603565b60008167ffffffffffffffff81111561166f577f4e487b7100000000000000000000000000000000000000000000000000000000600052604160045260246000fd5b6040519080825280601f01601f1916602001820160405280156116a15781602001600182028036833780820191505090505b5090505b60008514611754576001826116ba9190612383565b9150600a856116c99190612519565b60306116d591906122fc565b60f81b818381518110611711577f4e487b7100000000000000000000000000000000000000000000000000000000600052603260045260246000fd5b60200101907effffffffffffffffffffffffffffffffffffffffffffffffffffffffffffff1916908160001a905350600a8561174d9190612352565b94506116a5565b8093505050505b919050565b61176a83836117de565b611777600084848461141c565b6117b6576040517f08c379a00000000000000000000000000000000000000000000000000000000081526004016117ad906120c8565b60405180910390fd5b505050565b6000808273ffffffffffffffffffffffffffffffffffffffff163b119050919050565b600073ffffffffffffffffffffffffffffffffffffffff168273ffffffffffffffffffffffffffffffffffffffff16141561184e576040517f08c379a0000000000000000000000000000000000000000000000000000000008152600401611845906121c8565b60405180910390fd5b611857816113a6565b15611897576040517f08c379a000000000000000000000000000000000000000000000000000000000815260040161188e90612108565b60405180910390fd5b6118a360008383611412565b6001600360008473ffffffffffffffffffffffffffffffffffffffff1673ffffffffffffffffffffffffffffffffffffffff16815260200190815260200160002060008282546118f391906122fc565b92505081905550816002600083815260200190815260200160002060006101000a81548173ffffffffffffffffffffffffffffffffffffffff021916908373ffffffffffffffffffffffffffffffffffffffff160217905550808273ffffffffffffffffffffffffffffffffffffffff16600073ffffffffffffffffffffffffffffffffffffffff167fddf252ad1be2c89b69c2b068fc378daa952ba7f163c4a11628f55a4df523b3ef60405160405180910390a46119b460008383611417565b5050565b8280546119c49061246d565b90600052602060002090601f0160209004810192826119e65760008555611a2d565b82601f106119ff57805160ff1916838001178555611a2d565b82800160010185558215611a2d579182015b82811115611a2c578251825591602001919060010190611a11565b5b509050611a3a9190611a3e565b5090565b5b80821115611a57576000816000905550600101611a3f565b5090565b6000611a6e611a6984612288565b612263565b905082815260208101848484011115611a8657600080fd5b611a9184828561242b565b509392505050565b600081359050611aa881612933565b92915050565b600081359050611abd8161294a565b92915050565b600081359050611ad281612961565b92915050565b600081519050611ae781612961565b92915050565b600082601f830112611afe57600080fd5b8135611b0e848260208601611a5b565b91505092915050565b600081359050611b2681612978565b92915050565b600060208284031215611b3e57600080fd5b6000611b4c84828501611a99565b91505092915050565b60008060408385031215611b6857600080fd5b6000611b7685828601611a99565b9250506020611b8785828601611a99565b9150509250929050565b600080600060608486031215611ba657600080fd5b6000611bb486828701611a99565b9350506020611bc586828701611a99565b9250506040611bd686828701611b17565b9150509250925092565b60008060008060808587031215611bf657600080fd5b6000611c0487828801611a99565b9450506020611c1587828801611a99565b9350506040611c2687828801611b17565b925050606085013567ffffffffffffffff811115611c4357600080fd5b611c4f87828801611aed565b91505092959194509250565b60008060408385031215611c6e57600080fd5b6000611c7c85828601611a99565b9250506020611c8d85828601611aae565b9150509250929050565b60008060408385031215611caa57600080fd5b6000611cb885828601611a99565b9250506020611cc985828601611b17565b9150509250929050565b600060208284031215611ce557600080fd5b6000611cf384828501611ac3565b91505092915050565b600060208284031215611d0e57600080fd5b6000611d1c84828501611ad8565b91505092915050565b600060208284031215611d3757600080fd5b6000611d4584828501611b17565b91505092915050565b611d57816123b7565b82525050565b611d66816123c9565b82525050565b6000611d77826122b9565b611d8181856122cf565b9350611d9181856020860161243a565b611d9a81612606565b840191505092915050565b6000611db0826122c4565b611dba81856122e0565b9350611dca81856020860161243a565b611dd381612606565b840191505092915050565b6000611de9826122c4565b611df381856122f1565b9350611e0381856020860161243a565b80840191505092915050565b6000611e1c6032836122e0565b9150611e2782612617565b604082019050919050565b6000611e3f6025836122e0565b9150611e4a82612666565b604082019050919050565b6000611e62601c836122e0565b9150611e6d826126b5565b602082019050919050565b6000611e856024836122e0565b9150611e90826126de565b604082019050919050565b6000611ea86019836122e0565b9150611eb38261272d565b602082019050919050565b6000611ecb6029836122e0565b9150611ed682612756565b604082019050919050565b6000611eee602e836122e0565b9150611ef9826127a5565b604082019050919050565b6000611f11603e836122e0565b9150611f1c826127f4565b604082019050919050565b6000611f346020836122e0565b9150611f3f82612843565b602082019050919050565b6000611f576018836122e0565b9150611f628261286c565b602082019050919050565b6000611f7a6021836122e0565b9150611f8582612895565b604082019050919050565b6000611f9d602e836122e0565b9150611fa8826128e4565b604082019050919050565b611fbc81612421565b82525050565b6000611fce8285611dde565b9150611fda8284611dde565b91508190509392505050565b6000602082019050611ffb6000830184611d4e565b92915050565b60006080820190506120166000830187611d4e565b6120236020830186611d4e565b6120306040830185611fb3565b81810360608301526120428184611d6c565b905095945050505050565b60006020820190506120626000830184611d5d565b92915050565b600060208201905081810360008301526120828184611da5565b905092915050565b600060608201905081810360008301526120a48186611da5565b90506120b36020830185611fb3565b6120c06040830184611d4e565b949350505050565b600060208201905081810360008301526120e181611e0f565b9050919050565b6000602082019050818103600083015261210181611e32565b9050919050565b6000602082019050818103600083015261212181611e55565b9050919050565b6000602082019050818103600083015261214181611e78565b9050919050565b6000602082019050818103600083015261216181611e9b565b9050919050565b6000602082019050818103600083015261218181611ebe565b9050919050565b600060208201905081810360008301526121a181611ee1565b9050919050565b600060208201905081810360008301526121c181611f04565b9050919050565b600060208201905081810360008301526121e181611f27565b9050919050565b6000602082019050818103600083015261220181611f4a565b9050919050565b6000602082019050818103600083015261222181611f6d565b9050919050565b6000602082019050818103600083015261224181611f90565b9050919050565b600060208201905061225d6000830184611fb3565b92915050565b600061226d61227e565b9050612279828261249f565b919050565b6000604051905090565b600067ffffffffffffffff8211156122a3576122a26125d7565b5b6122ac82612606565b9050602081019050919050565b600081519050919050565b600081519050919050565b600082825260208201905092915050565b600082825260208201905092915050565b600081905092915050565b600061230782612421565b915061231283612421565b9250827fffffffffffffffffffffffffffffffffffffffffffffffffffffffffffffffff038211156123475761234661254a565b5b828201905092915050565b600061235d82612421565b915061236883612421565b92508261237857612377612579565b5b828204905092915050565b600061238e82612421565b915061239983612421565b9250828210156123ac576123ab61254a565b5b828203905092915050565b60006123c282612401565b9050919050565b60008115159050919050565b60007fffffffff0000000000000000000000000000000000000000000000000000000082169050919050565b600073ffffffffffffffffffffffffffffffffffffffff82169050919050565b6000819050919050565b82818337600083830152505050565b60005b8381101561245857808201518184015260208101905061243d565b83811115612467576000848401525b50505050565b6000600282049050600182168061248557607f821691505b60208210811415612499576124986125a8565b5b50919050565b6124a882612606565b810181811067ffffffffffffffff821117156124c7576124c66125d7565b5b80604052505050565b60006124db82612421565b91507fffffffffffffffffffffffffffffffffffffffffffffffffffffffffffffffff82141561250e5761250d61254a565b5b600182019050919050565b600061252482612421565b915061252f83612421565b92508261253f5761253e612579565b5b828206905092915050565b7f4e487b7100000000000000000000000000000000000000000000000000000000600052601160045260246000fd5b7f4e487b7100000000000000000000000000000000000000000000000000000000600052601260045260246000fd5b7f4e487b7100000000000000000000000000000000000000000000000000000000600052602260045260246000fd5b7f4e487b7100000000000000000000000000000000000000000000000000000000600052604160045260246000fd5b6000601f19601f8301169050919050565b7f4552433732313a207472616e7366657220746f206e6f6e20455243373231526560008201527f63656976657220696d706c656d656e7465720000000000000000000000000000602082015250565b7f4552433732313a207472616e736665722066726f6d20696e636f72726563742060008201527f6f776e6572000000000000000000000000000000000000000000000000000000602082015250565b7f4552433732313a20746f6b656e20616c7265616479206d696e74656400000000600082015250565b7f4552433732313a207472616e7366657220746f20746865207a65726f2061646460008201527f7265737300000000000000000000000000000000000000000000000000000000602082015250565b7f4552433732313a20617070726f766520746f2063616c6c657200000000000000600082015250565b7f4552433732313a2061646472657373207a65726f206973206e6f74206120766160008201527f6c6964206f776e65720000000000000000000000000000000000000000000000602082015250565b7f45524337323155524953746f726167653a2055524920736574206f66206e6f6e60008201527f6578697374656e7420746f6b656e000000000000000000000000000000000000602082015250565b7f4552433732313a20617070726f76652063616c6c6572206973206e6f7420746f60008201527f6b656e206f776e6572206e6f7220617070726f76656420666f7220616c6c0000602082015250565b7f4552433732313a206d696e7420746f20746865207a65726f2061646472657373600082015250565b7f4552433732313a20696e76616c696420746f6b656e2049440000000000000000600082015250565b7f4552433732313a20617070726f76616c20746f2063757272656e74206f776e6560008201527f7200000000000000000000000000000000000000000000000000000000000000602082015250565b7f4552433732313a2063616c6c6572206973206e6f7420746f6b656e206f776e6560008201527f72206e6f7220617070726f766564000000000000000000000000000000000000602082015250565b61293c816123b7565b811461294757600080fd5b50565b612953816123c9565b811461295e57600080fd5b50565b61296a816123d5565b811461297557600080fd5b50565b61298181612421565b811461298c57600080fd5b5056fe416e204e465420772f20494420257320686173206265656e206d696e74656420746f202573a2646970667358221220d95ed74037a07ed7179880a6e5d9aef354e4c8c0f499cc8075787ce9c294c80564736f6c63430008010033",
  "linkReferences": {},
  "deployedLinkReferences": {}
}